{
  "_format": "hh-sol-artifact-1",
  "contractName": "DynamicNFT",
  "sourceName": "contracts/DynamicNFT.sol",
  "abi": [
    {
      "inputs": [],
      "stateMutability": "nonpayable",
      "type": "constructor"
    },
    {
      "anonymous": false,
      "inputs": [
        {
          "indexed": true,
          "internalType": "address",
          "name": "owner",
          "type": "address"
        },
        {
          "indexed": true,
          "internalType": "address",
          "name": "approved",
          "type": "address"
        },
        {
          "indexed": true,
          "internalType": "uint256",
          "name": "tokenId",
          "type": "uint256"
        }
      ],
      "name": "Approval",
      "type": "event"
    },
    {
      "anonymous": false,
      "inputs": [
        {
          "indexed": true,
          "internalType": "address",
          "name": "owner",
          "type": "address"
        },
        {
          "indexed": true,
          "internalType": "address",
          "name": "operator",
          "type": "address"
        },
        {
          "indexed": false,
          "internalType": "bool",
          "name": "approved",
          "type": "bool"
        }
      ],
      "name": "ApprovalForAll",
      "type": "event"
    },
    {
      "anonymous": false,
      "inputs": [
        {
          "indexed": false,
          "internalType": "string",
          "name": "_baseURI",
          "type": "string"
        }
      ],
      "name": "SetBaseURI",
      "type": "event"
    },
    {
      "anonymous": false,
      "inputs": [
        {
          "indexed": true,
          "internalType": "address",
          "name": "from",
          "type": "address"
        },
        {
          "indexed": true,
          "internalType": "address",
          "name": "to",
          "type": "address"
        },
        {
          "indexed": true,
          "internalType": "uint256",
          "name": "tokenId",
          "type": "uint256"
        }
      ],
      "name": "Transfer",
      "type": "event"
    },
    {
      "inputs": [
        {
          "internalType": "address",
          "name": "to",
          "type": "address"
        },
        {
          "internalType": "uint256",
          "name": "tokenId",
          "type": "uint256"
        }
      ],
      "name": "approve",
      "outputs": [],
      "stateMutability": "nonpayable",
      "type": "function"
    },
    {
      "inputs": [
        {
          "internalType": "address",
          "name": "owner",
          "type": "address"
        }
      ],
      "name": "balanceOf",
      "outputs": [
        {
          "internalType": "uint256",
          "name": "",
          "type": "uint256"
        }
      ],
      "stateMutability": "view",
      "type": "function"
    },
    {
      "inputs": [
        {
          "internalType": "uint256",
          "name": "tokenId",
          "type": "uint256"
        }
      ],
      "name": "getApproved",
      "outputs": [
        {
          "internalType": "address",
          "name": "",
          "type": "address"
        }
      ],
      "stateMutability": "view",
      "type": "function"
    },
    {
      "inputs": [
        {
          "internalType": "address",
          "name": "owner",
          "type": "address"
        },
        {
          "internalType": "address",
          "name": "operator",
          "type": "address"
        }
      ],
      "name": "isApprovedForAll",
      "outputs": [
        {
          "internalType": "bool",
          "name": "",
          "type": "bool"
        }
      ],
      "stateMutability": "view",
      "type": "function"
    },
    {
      "inputs": [
        {
          "internalType": "address",
          "name": "to",
          "type": "address"
        },
        {
          "internalType": "string",
          "name": "baseURI",
          "type": "string"
        }
      ],
      "name": "mint",
      "outputs": [
        {
          "internalType": "uint256",
          "name": "",
          "type": "uint256"
        }
      ],
      "stateMutability": "nonpayable",
      "type": "function"
    },
    {
      "inputs": [],
      "name": "name",
      "outputs": [
        {
          "internalType": "string",
          "name": "",
          "type": "string"
        }
      ],
      "stateMutability": "view",
      "type": "function"
    },
    {
      "inputs": [],
      "name": "nextTokenId",
      "outputs": [
        {
          "internalType": "uint256",
          "name": "",
          "type": "uint256"
        }
      ],
      "stateMutability": "view",
      "type": "function"
    },
    {
      "inputs": [
        {
          "internalType": "uint256",
          "name": "tokenId",
          "type": "uint256"
        }
      ],
      "name": "ownerOf",
      "outputs": [
        {
          "internalType": "address",
          "name": "",
          "type": "address"
        }
      ],
      "stateMutability": "view",
      "type": "function"
    },
    {
      "inputs": [
        {
          "internalType": "address",
          "name": "from",
          "type": "address"
        },
        {
          "internalType": "address",
          "name": "to",
          "type": "address"
        },
        {
          "internalType": "uint256",
          "name": "tokenId",
          "type": "uint256"
        }
      ],
      "name": "safeTransferFrom",
      "outputs": [],
      "stateMutability": "nonpayable",
      "type": "function"
    },
    {
      "inputs": [
        {
          "internalType": "address",
          "name": "from",
          "type": "address"
        },
        {
          "internalType": "address",
          "name": "to",
          "type": "address"
        },
        {
          "internalType": "uint256",
          "name": "tokenId",
          "type": "uint256"
        },
        {
          "internalType": "bytes",
          "name": "data",
          "type": "bytes"
        }
      ],
      "name": "safeTransferFrom",
      "outputs": [],
      "stateMutability": "nonpayable",
      "type": "function"
    },
    {
      "inputs": [
        {
          "internalType": "address",
          "name": "operator",
          "type": "address"
        },
        {
          "internalType": "bool",
          "name": "approved",
          "type": "bool"
        }
      ],
      "name": "setApprovalForAll",
      "outputs": [],
      "stateMutability": "nonpayable",
      "type": "function"
    },
    {
      "inputs": [
        {
          "internalType": "string",
          "name": "baseURI_",
          "type": "string"
        }
      ],
      "name": "setBaseURI",
      "outputs": [],
      "stateMutability": "nonpayable",
      "type": "function"
    },
    {
      "inputs": [
        {
          "internalType": "bytes4",
          "name": "interfaceId",
          "type": "bytes4"
        }
      ],
      "name": "supportsInterface",
      "outputs": [
        {
          "internalType": "bool",
          "name": "",
          "type": "bool"
        }
      ],
      "stateMutability": "view",
      "type": "function"
    },
    {
      "inputs": [],
      "name": "symbol",
      "outputs": [
        {
          "internalType": "string",
          "name": "",
          "type": "string"
        }
      ],
      "stateMutability": "view",
      "type": "function"
    },
    {
      "inputs": [
        {
          "internalType": "uint256",
          "name": "tokenId",
          "type": "uint256"
        }
      ],
      "name": "tokenURI",
      "outputs": [
        {
          "internalType": "string",
          "name": "",
          "type": "string"
        }
      ],
      "stateMutability": "view",
      "type": "function"
    },
    {
      "inputs": [
        {
          "internalType": "address",
          "name": "from",
          "type": "address"
        },
        {
          "internalType": "address",
          "name": "to",
          "type": "address"
        },
        {
          "internalType": "uint256",
          "name": "tokenId",
          "type": "uint256"
        }
      ],
      "name": "transferFrom",
      "outputs": [],
      "stateMutability": "nonpayable",
      "type": "function"
    }
  ],
  "bytecode": "0x60806040523480156200001157600080fd5b50604080518082018252600a815269111e5b985b5a58d3919560b21b60208083019182528351808501909452600384526211119560ea1b9084015281519192916200005f916000916200007e565b508051620000759060019060208401906200007e565b50505062000161565b8280546200008c9062000124565b90600052602060002090601f016020900481019282620000b05760008555620000fb565b82601f10620000cb57805160ff1916838001178555620000fb565b82800160010185558215620000fb579182015b82811115620000fb578251825591602001919060010190620000de565b50620001099291506200010d565b5090565b5b808211156200010957600081556001016200010e565b600181811c908216806200013957607f821691505b602082108114156200015b57634e487b7160e01b600052602260045260246000fd5b50919050565b61151380620001716000396000f3fe608060405234801561001057600080fd5b50600436106101005760003560e01c806370a0823111610097578063b88d4fde11610066578063b88d4fde14610212578063c87b56dd14610225578063d0def52114610238578063e985e9c51461024b57600080fd5b806370a08231146101ce57806375794a3c146101ef57806395d89b41146101f7578063a22cb465146101ff57600080fd5b806323b872dd116100d357806323b872dd1461018257806342842e0e1461019557806355f804b3146101a85780636352211e146101bb57600080fd5b806301ffc9a71461010557806306fdde031461012d578063081812fc14610142578063095ea7b31461016d575b600080fd5b610118610113366004610f6d565b610287565b60405190151581526020015b60405180910390f35b6101356102d9565b6040516101249190610fe2565b610155610150366004610ff5565b61036b565b6040516001600160a01b039091168152602001610124565b61018061017b36600461102a565b610392565b005b610180610190366004611054565b6104ad565b6101806101a3366004611054565b6104de565b6101806101b636600461113c565b6104f9565b6101556101c9366004610ff5565b610547565b6101e16101dc366004611171565b6105a7565b604051908152602001610124565b6101e161062d565b61013561063d565b61018061020d36600461118c565b61064c565b6101806102203660046111c8565b61065b565b610135610233366004610ff5565b610693565b6101e1610246366004611244565b6106fa565b610118610259366004611292565b6001600160a01b03918216600090815260056020908152604080832093909416825291909152205460ff1690565b60006001600160e01b031982166380ac58cd60e01b14806102b857506001600160e01b03198216635b5e139f60e01b145b806102d357506301ffc9a760e01b6001600160e01b03198316145b92915050565b6060600080546102e8906112c5565b80601f0160208091040260200160405190810160405280929190818152602001828054610314906112c5565b80156103615780601f1061033657610100808354040283529160200191610361565b820191906000526020600020905b81548152906001019060200180831161034457829003601f168201915b5050505050905090565b600061037682610728565b506000908152600460205260409020546001600160a01b031690565b600061039d82610547565b9050806001600160a01b0316836001600160a01b031614156104105760405162461bcd60e51b815260206004820152602160248201527f4552433732313a20617070726f76616c20746f2063757272656e74206f776e656044820152603960f91b60648201526084015b60405180910390fd5b336001600160a01b038216148061042c575061042c8133610259565b61049e5760405162461bcd60e51b815260206004820152603e60248201527f4552433732313a20617070726f76652063616c6c6572206973206e6f7420746f60448201527f6b656e206f776e6572206e6f7220617070726f76656420666f7220616c6c00006064820152608401610407565b6104a8838361078a565b505050565b6104b733826107f8565b6104d35760405162461bcd60e51b815260040161040790611300565b6104a8838383610877565b6104a88383836040518060200160405280600081525061065b565b805161050c906007906020840190610ebe565b507f23c8c9488efebfd474e85a7956de6f39b17c7ab88502d42a623db2d8e382bbaa8160405161053c9190610fe2565b60405180910390a150565b6000818152600260205260408120546001600160a01b0316806102d35760405162461bcd60e51b8152602060048201526018602482015277115490cdcc8c4e881a5b9d985b1a59081d1bdad95b88125160421b6044820152606401610407565b60006001600160a01b0382166106115760405162461bcd60e51b815260206004820152602960248201527f4552433732313a2061646472657373207a65726f206973206e6f7420612076616044820152683634b21037bbb732b960b91b6064820152608401610407565b506001600160a01b031660009081526003602052604090205490565b600061063860065490565b905090565b6060600180546102e8906112c5565b610657338383610a13565b5050565b61066533836107f8565b6106815760405162461bcd60e51b815260040161040790611300565b61068d84848484610ae2565b50505050565b606061069e82610728565b60006106a8610b15565b905060008151116106c857604051806020016040528060008152506106f3565b806106d284610b24565b6040516020016106e392919061134e565b6040516020818303038152906040525b9392505050565b60008061070561062d565b90506107118482610c22565b61071f600680546001019055565b6106f3836104f9565b6000818152600260205260409020546001600160a01b03166107875760405162461bcd60e51b8152602060048201526018602482015277115490cdcc8c4e881a5b9d985b1a59081d1bdad95b88125160421b6044820152606401610407565b50565b600081815260046020526040902080546001600160a01b0319166001600160a01b03841690811790915581906107bf82610547565b6001600160a01b03167f8c5be1e5ebec7d5bd14f71427d1e84f3dd0314c0f7b2291e5b200ac8c7c3b92560405160405180910390a45050565b60008061080483610547565b9050806001600160a01b0316846001600160a01b0316148061084b57506001600160a01b0380821660009081526005602090815260408083209388168352929052205460ff165b8061086f5750836001600160a01b03166108648461036b565b6001600160a01b0316145b949350505050565b826001600160a01b031661088a82610547565b6001600160a01b0316146108ee5760405162461bcd60e51b815260206004820152602560248201527f4552433732313a207472616e736665722066726f6d20696e636f72726563742060448201526437bbb732b960d91b6064820152608401610407565b6001600160a01b0382166109505760405162461bcd60e51b8152602060048201526024808201527f4552433732313a207472616e7366657220746f20746865207a65726f206164646044820152637265737360e01b6064820152608401610407565b61095b60008261078a565b6001600160a01b0383166000908152600360205260408120805460019290610984908490611393565b90915550506001600160a01b03821660009081526003602052604081208054600192906109b29084906113aa565b909155505060008181526002602052604080822080546001600160a01b0319166001600160a01b0386811691821790925591518493918716917fddf252ad1be2c89b69c2b068fc378daa952ba7f163c4a11628f55a4df523b3ef91a4505050565b816001600160a01b0316836001600160a01b03161415610a755760405162461bcd60e51b815260206004820152601960248201527f4552433732313a20617070726f766520746f2063616c6c6572000000000000006044820152606401610407565b6001600160a01b03838116600081815260056020908152604080832094871680845294825291829020805460ff191686151590811790915591519182527f17307eab39ab6107e8899845ad3d59bd9653f200f220920489ca2b5937696c31910160405180910390a3505050565b610aed848484610877565b610af984848484610c3c565b61068d5760405162461bcd60e51b8152600401610407906113c2565b6060600780546102e8906112c5565b606081610b485750506040805180820190915260018152600360fc1b602082015290565b8160005b8115610b725780610b5c81611414565b9150610b6b9050600a83611445565b9150610b4c565b60008167ffffffffffffffff811115610b8d57610b8d611090565b6040519080825280601f01601f191660200182016040528015610bb7576020820181803683370190505b5090505b841561086f57610bcc600183611393565b9150610bd9600a86611459565b610be49060306113aa565b60f81b818381518110610bf957610bf961146d565b60200101906001600160f81b031916908160001a905350610c1b600a86611445565b9450610bbb565b610657828260405180602001604052806000815250610d49565b60006001600160a01b0384163b15610d3e57604051630a85bd0160e11b81526001600160a01b0385169063150b7a0290610c80903390899088908890600401611483565b602060405180830381600087803b158015610c9a57600080fd5b505af1925050508015610cca575060408051601f3d908101601f19168201909252610cc7918101906114c0565b60015b610d24573d808015610cf8576040519150601f19603f3d011682016040523d82523d6000602084013e610cfd565b606091505b508051610d1c5760405162461bcd60e51b8152600401610407906113c2565b805181602001fd5b6001600160e01b031916630a85bd0160e11b14905061086f565b506001949350505050565b610d538383610d7c565b610d606000848484610c3c565b6104a85760405162461bcd60e51b8152600401610407906113c2565b6001600160a01b038216610dd25760405162461bcd60e51b815260206004820181905260248201527f4552433732313a206d696e7420746f20746865207a65726f20616464726573736044820152606401610407565b6000818152600260205260409020546001600160a01b031615610e375760405162461bcd60e51b815260206004820152601c60248201527f4552433732313a20746f6b656e20616c7265616479206d696e746564000000006044820152606401610407565b6001600160a01b0382166000908152600360205260408120805460019290610e609084906113aa565b909155505060008181526002602052604080822080546001600160a01b0319166001600160a01b03861690811790915590518392907fddf252ad1be2c89b69c2b068fc378daa952ba7f163c4a11628f55a4df523b3ef908290a45050565b828054610eca906112c5565b90600052602060002090601f016020900481019282610eec5760008555610f32565b82601f10610f0557805160ff1916838001178555610f32565b82800160010185558215610f32579182015b82811115610f32578251825591602001919060010190610f17565b50610f3e929150610f42565b5090565b5b80821115610f3e5760008155600101610f43565b6001600160e01b03198116811461078757600080fd5b600060208284031215610f7f57600080fd5b81356106f381610f57565b60005b83811015610fa5578181015183820152602001610f8d565b8381111561068d5750506000910152565b60008151808452610fce816020860160208601610f8a565b601f01601f19169290920160200192915050565b6020815260006106f36020830184610fb6565b60006020828403121561100757600080fd5b5035919050565b80356001600160a01b038116811461102557600080fd5b919050565b6000806040838503121561103d57600080fd5b6110468361100e565b946020939093013593505050565b60008060006060848603121561106957600080fd5b6110728461100e565b92506110806020850161100e565b9150604084013590509250925092565b634e487b7160e01b600052604160045260246000fd5b600067ffffffffffffffff808411156110c1576110c1611090565b604051601f8501601f19908116603f011681019082821181831017156110e9576110e9611090565b8160405280935085815286868601111561110257600080fd5b858560208301376000602087830101525050509392505050565b600082601f83011261112d57600080fd5b6106f3838335602085016110a6565b60006020828403121561114e57600080fd5b813567ffffffffffffffff81111561116557600080fd5b61086f8482850161111c565b60006020828403121561118357600080fd5b6106f38261100e565b6000806040838503121561119f57600080fd5b6111a88361100e565b9150602083013580151581146111bd57600080fd5b809150509250929050565b600080600080608085870312156111de57600080fd5b6111e78561100e565b93506111f56020860161100e565b925060408501359150606085013567ffffffffffffffff81111561121857600080fd5b8501601f8101871361122957600080fd5b611238878235602084016110a6565b91505092959194509250565b6000806040838503121561125757600080fd5b6112608361100e565b9150602083013567ffffffffffffffff81111561127c57600080fd5b6112888582860161111c565b9150509250929050565b600080604083850312156112a557600080fd5b6112ae8361100e565b91506112bc6020840161100e565b90509250929050565b600181811c908216806112d957607f821691505b602082108114156112fa57634e487b7160e01b600052602260045260246000fd5b50919050565b6020808252602e908201527f4552433732313a2063616c6c6572206973206e6f7420746f6b656e206f776e6560408201526d1c881b9bdc88185c1c1c9bdd995960921b606082015260800190565b60008351611360818460208801610f8a565b835190830190611374818360208801610f8a565b01949350505050565b634e487b7160e01b600052601160045260246000fd5b6000828210156113a5576113a561137d565b500390565b600082198211156113bd576113bd61137d565b500190565b60208082526032908201527f4552433732313a207472616e7366657220746f206e6f6e20455243373231526560408201527131b2b4bb32b91034b6b83632b6b2b73a32b960711b606082015260800190565b60006000198214156114285761142861137d565b5060010190565b634e487b7160e01b600052601260045260246000fd5b6000826114545761145461142f565b500490565b6000826114685761146861142f565b500690565b634e487b7160e01b600052603260045260246000fd5b6001600160a01b03858116825284166020820152604081018390526080606082018190526000906114b690830184610fb6565b9695505050505050565b6000602082840312156114d257600080fd5b81516106f381610f5756fea26469706673582212205226bddb1fceee975747c3e13b44704a68dc14f475f6f53c0d6c6f1204a647bd64736f6c63430008090033",
  "linkReferences": {},
  "deployedLinkReferences": {}
}