{
  "_format": "hh-sol-artifact-1",
  "contractName": "DynamicNFT",
  "sourceName": "contracts/DynamicNFT.sol",
  "abi": [
    {
      "inputs": [],
      "stateMutability": "nonpayable",
      "type": "constructor"
    },
    {
      "anonymous": false,
      "inputs": [
        {
          "indexed": true,
          "internalType": "address",
          "name": "owner",
          "type": "address"
        },
        {
          "indexed": true,
          "internalType": "address",
          "name": "approved",
          "type": "address"
        },
        {
          "indexed": true,
          "internalType": "uint256",
          "name": "tokenId",
          "type": "uint256"
        }
      ],
      "name": "Approval",
      "type": "event"
    },
    {
      "anonymous": false,
      "inputs": [
        {
          "indexed": true,
          "internalType": "address",
          "name": "owner",
          "type": "address"
        },
        {
          "indexed": true,
          "internalType": "address",
          "name": "operator",
          "type": "address"
        },
        {
          "indexed": false,
          "internalType": "bool",
          "name": "approved",
          "type": "bool"
        }
      ],
      "name": "ApprovalForAll",
      "type": "event"
    },
    {
      "anonymous": false,
      "inputs": [
        {
          "indexed": false,
          "internalType": "string",
          "name": "_baseURI",
          "type": "string"
        }
      ],
      "name": "SetBaseURI",
      "type": "event"
    },
    {
      "anonymous": false,
      "inputs": [
        {
          "indexed": true,
          "internalType": "address",
          "name": "from",
          "type": "address"
        },
        {
          "indexed": true,
          "internalType": "address",
          "name": "to",
          "type": "address"
        },
        {
          "indexed": true,
          "internalType": "uint256",
          "name": "tokenId",
          "type": "uint256"
        }
      ],
      "name": "Transfer",
      "type": "event"
    },
    {
      "inputs": [
        {
          "internalType": "address",
          "name": "to",
          "type": "address"
        },
        {
          "internalType": "uint256",
          "name": "tokenId",
          "type": "uint256"
        }
      ],
      "name": "approve",
      "outputs": [],
      "stateMutability": "nonpayable",
      "type": "function"
    },
    {
      "inputs": [
        {
          "internalType": "address",
          "name": "owner",
          "type": "address"
        }
      ],
      "name": "balanceOf",
      "outputs": [
        {
          "internalType": "uint256",
          "name": "",
          "type": "uint256"
        }
      ],
      "stateMutability": "view",
      "type": "function"
    },
    {
      "inputs": [
        {
          "internalType": "uint256",
          "name": "tokenId",
          "type": "uint256"
        }
      ],
      "name": "getApproved",
      "outputs": [
        {
          "internalType": "address",
          "name": "",
          "type": "address"
        }
      ],
      "stateMutability": "view",
      "type": "function"
    },
    {
      "inputs": [
        {
          "internalType": "address",
          "name": "owner",
          "type": "address"
        },
        {
          "internalType": "address",
          "name": "operator",
          "type": "address"
        }
      ],
      "name": "isApprovedForAll",
      "outputs": [
        {
          "internalType": "bool",
          "name": "",
          "type": "bool"
        }
      ],
      "stateMutability": "view",
      "type": "function"
    },
    {
      "inputs": [
        {
          "internalType": "address",
          "name": "to",
          "type": "address"
        },
        {
          "internalType": "string",
          "name": "baseURI",
          "type": "string"
        }
      ],
      "name": "mint",
      "outputs": [
        {
          "internalType": "uint256",
          "name": "",
          "type": "uint256"
        }
      ],
      "stateMutability": "nonpayable",
      "type": "function"
    },
    {
      "inputs": [],
      "name": "name",
      "outputs": [
        {
          "internalType": "string",
          "name": "",
          "type": "string"
        }
      ],
      "stateMutability": "view",
      "type": "function"
    },
    {
      "inputs": [],
      "name": "nextTokenId",
      "outputs": [
        {
          "internalType": "uint256",
          "name": "",
          "type": "uint256"
        }
      ],
      "stateMutability": "view",
      "type": "function"
    },
    {
      "inputs": [
        {
          "internalType": "uint256",
          "name": "tokenId",
          "type": "uint256"
        }
      ],
      "name": "ownerOf",
      "outputs": [
        {
          "internalType": "address",
          "name": "",
          "type": "address"
        }
      ],
      "stateMutability": "view",
      "type": "function"
    },
    {
      "inputs": [
        {
          "internalType": "address",
          "name": "from",
          "type": "address"
        },
        {
          "internalType": "address",
          "name": "to",
          "type": "address"
        },
        {
          "internalType": "uint256",
          "name": "tokenId",
          "type": "uint256"
        }
      ],
      "name": "safeTransferFrom",
      "outputs": [],
      "stateMutability": "nonpayable",
      "type": "function"
    },
    {
      "inputs": [
        {
          "internalType": "address",
          "name": "from",
          "type": "address"
        },
        {
          "internalType": "address",
          "name": "to",
          "type": "address"
        },
        {
          "internalType": "uint256",
          "name": "tokenId",
          "type": "uint256"
        },
        {
          "internalType": "bytes",
          "name": "data",
          "type": "bytes"
        }
      ],
      "name": "safeTransferFrom",
      "outputs": [],
      "stateMutability": "nonpayable",
      "type": "function"
    },
    {
      "inputs": [
        {
          "internalType": "address",
          "name": "operator",
          "type": "address"
        },
        {
          "internalType": "bool",
          "name": "approved",
          "type": "bool"
        }
      ],
      "name": "setApprovalForAll",
      "outputs": [],
      "stateMutability": "nonpayable",
      "type": "function"
    },
    {
      "inputs": [
        {
          "internalType": "string",
          "name": "baseURI_",
          "type": "string"
        }
      ],
      "name": "setBaseURI",
      "outputs": [],
      "stateMutability": "nonpayable",
      "type": "function"
    },
    {
      "inputs": [
        {
          "internalType": "bytes4",
          "name": "interfaceId",
          "type": "bytes4"
        }
      ],
      "name": "supportsInterface",
      "outputs": [
        {
          "internalType": "bool",
          "name": "",
          "type": "bool"
        }
      ],
      "stateMutability": "view",
      "type": "function"
    },
    {
      "inputs": [],
      "name": "symbol",
      "outputs": [
        {
          "internalType": "string",
          "name": "",
          "type": "string"
        }
      ],
      "stateMutability": "view",
      "type": "function"
    },
    {
      "inputs": [
        {
          "internalType": "uint256",
          "name": "tokenId",
          "type": "uint256"
        }
      ],
      "name": "tokenURI",
      "outputs": [
        {
          "internalType": "string",
          "name": "",
          "type": "string"
        }
      ],
      "stateMutability": "view",
      "type": "function"
    },
    {
      "inputs": [],
      "name": "totalSupply",
      "outputs": [
        {
          "internalType": "uint256",
          "name": "",
          "type": "uint256"
        }
      ],
      "stateMutability": "view",
      "type": "function"
    },
    {
      "inputs": [
        {
          "internalType": "address",
          "name": "from",
          "type": "address"
        },
        {
          "internalType": "address",
          "name": "to",
          "type": "address"
        },
        {
          "internalType": "uint256",
          "name": "tokenId",
          "type": "uint256"
        }
      ],
      "name": "transferFrom",
      "outputs": [],
      "stateMutability": "nonpayable",
      "type": "function"
    }
  ],
  "bytecode": "0x60806040523480156200001157600080fd5b50604080518082018252600a815269111e5b985b5a58d3919560b21b60208083019182528351808501909452600384526211119560ea1b9084015281519192916200005f916000916200007e565b508051620000759060019060208401906200007e565b50505062000161565b8280546200008c9062000124565b90600052602060002090601f016020900481019282620000b05760008555620000fb565b82601f10620000cb57805160ff1916838001178555620000fb565b82800160010185558215620000fb579182015b82811115620000fb578251825591602001919060010190620000de565b50620001099291506200010d565b5090565b5b808211156200010957600081556001016200010e565b600181811c908216806200013957607f821691505b602082108114156200015b57634e487b7160e01b600052602260045260246000fd5b50919050565b61151e80620001716000396000f3fe608060405234801561001057600080fd5b506004361061010b5760003560e01c80636352211e116100a2578063a22cb46511610071578063a22cb4651461020a578063b88d4fde1461021d578063c87b56dd14610230578063d0def52114610243578063e985e9c51461025657600080fd5b80636352211e146101dc57806370a08231146101ef57806375794a3c1461018d57806395d89b411461020257600080fd5b806318160ddd116100de57806318160ddd1461018d57806323b872dd146101a357806342842e0e146101b657806355f804b3146101c957600080fd5b806301ffc9a71461011057806306fdde0314610138578063081812fc1461014d578063095ea7b314610178575b600080fd5b61012361011e366004610f78565b610292565b60405190151581526020015b60405180910390f35b6101406102e4565b60405161012f9190610fed565b61016061015b366004611000565b610376565b6040516001600160a01b03909116815260200161012f565b61018b610186366004611035565b61039d565b005b6101956104b8565b60405190815260200161012f565b61018b6101b136600461105f565b6104c8565b61018b6101c436600461105f565b6104f9565b61018b6101d7366004611147565b610514565b6101606101ea366004611000565b610562565b6101956101fd36600461117c565b6105c2565b610140610648565b61018b610218366004611197565b610657565b61018b61022b3660046111d3565b610666565b61014061023e366004611000565b61069e565b61019561025136600461124f565b610705565b61012361026436600461129d565b6001600160a01b03918216600090815260056020908152604080832093909416825291909152205460ff1690565b60006001600160e01b031982166380ac58cd60e01b14806102c357506001600160e01b03198216635b5e139f60e01b145b806102de57506301ffc9a760e01b6001600160e01b03198316145b92915050565b6060600080546102f3906112d0565b80601f016020809104026020016040519081016040528092919081815260200182805461031f906112d0565b801561036c5780601f106103415761010080835404028352916020019161036c565b820191906000526020600020905b81548152906001019060200180831161034f57829003601f168201915b5050505050905090565b600061038182610733565b506000908152600460205260409020546001600160a01b031690565b60006103a882610562565b9050806001600160a01b0316836001600160a01b0316141561041b5760405162461bcd60e51b815260206004820152602160248201527f4552433732313a20617070726f76616c20746f2063757272656e74206f776e656044820152603960f91b60648201526084015b60405180910390fd5b336001600160a01b038216148061043757506104378133610264565b6104a95760405162461bcd60e51b815260206004820152603e60248201527f4552433732313a20617070726f76652063616c6c6572206973206e6f7420746f60448201527f6b656e206f776e6572206e6f7220617070726f76656420666f7220616c6c00006064820152608401610412565b6104b38383610795565b505050565b60006104c360065490565b905090565b6104d23382610803565b6104ee5760405162461bcd60e51b81526004016104129061130b565b6104b3838383610882565b6104b383838360405180602001604052806000815250610666565b8051610527906007906020840190610ec9565b507f23c8c9488efebfd474e85a7956de6f39b17c7ab88502d42a623db2d8e382bbaa816040516105579190610fed565b60405180910390a150565b6000818152600260205260408120546001600160a01b0316806102de5760405162461bcd60e51b8152602060048201526018602482015277115490cdcc8c4e881a5b9d985b1a59081d1bdad95b88125160421b6044820152606401610412565b60006001600160a01b03821661062c5760405162461bcd60e51b815260206004820152602960248201527f4552433732313a2061646472657373207a65726f206973206e6f7420612076616044820152683634b21037bbb732b960b91b6064820152608401610412565b506001600160a01b031660009081526003602052604090205490565b6060600180546102f3906112d0565b610662338383610a1e565b5050565b6106703383610803565b61068c5760405162461bcd60e51b81526004016104129061130b565b61069884848484610aed565b50505050565b60606106a982610733565b60006106b3610b20565b905060008151116106d357604051806020016040528060008152506106fe565b806106dd84610b2f565b6040516020016106ee929190611359565b6040516020818303038152906040525b9392505050565b6000806107106104b8565b905061071c8482610c2d565b61072a600680546001019055565b6106fe83610514565b6000818152600260205260409020546001600160a01b03166107925760405162461bcd60e51b8152602060048201526018602482015277115490cdcc8c4e881a5b9d985b1a59081d1bdad95b88125160421b6044820152606401610412565b50565b600081815260046020526040902080546001600160a01b0319166001600160a01b03841690811790915581906107ca82610562565b6001600160a01b03167f8c5be1e5ebec7d5bd14f71427d1e84f3dd0314c0f7b2291e5b200ac8c7c3b92560405160405180910390a45050565b60008061080f83610562565b9050806001600160a01b0316846001600160a01b0316148061085657506001600160a01b0380821660009081526005602090815260408083209388168352929052205460ff165b8061087a5750836001600160a01b031661086f84610376565b6001600160a01b0316145b949350505050565b826001600160a01b031661089582610562565b6001600160a01b0316146108f95760405162461bcd60e51b815260206004820152602560248201527f4552433732313a207472616e736665722066726f6d20696e636f72726563742060448201526437bbb732b960d91b6064820152608401610412565b6001600160a01b03821661095b5760405162461bcd60e51b8152602060048201526024808201527f4552433732313a207472616e7366657220746f20746865207a65726f206164646044820152637265737360e01b6064820152608401610412565b610966600082610795565b6001600160a01b038316600090815260036020526040812080546001929061098f90849061139e565b90915550506001600160a01b03821660009081526003602052604081208054600192906109bd9084906113b5565b909155505060008181526002602052604080822080546001600160a01b0319166001600160a01b0386811691821790925591518493918716917fddf252ad1be2c89b69c2b068fc378daa952ba7f163c4a11628f55a4df523b3ef91a4505050565b816001600160a01b0316836001600160a01b03161415610a805760405162461bcd60e51b815260206004820152601960248201527f4552433732313a20617070726f766520746f2063616c6c6572000000000000006044820152606401610412565b6001600160a01b03838116600081815260056020908152604080832094871680845294825291829020805460ff191686151590811790915591519182527f17307eab39ab6107e8899845ad3d59bd9653f200f220920489ca2b5937696c31910160405180910390a3505050565b610af8848484610882565b610b0484848484610c47565b6106985760405162461bcd60e51b8152600401610412906113cd565b6060600780546102f3906112d0565b606081610b535750506040805180820190915260018152600360fc1b602082015290565b8160005b8115610b7d5780610b678161141f565b9150610b769050600a83611450565b9150610b57565b60008167ffffffffffffffff811115610b9857610b9861109b565b6040519080825280601f01601f191660200182016040528015610bc2576020820181803683370190505b5090505b841561087a57610bd760018361139e565b9150610be4600a86611464565b610bef9060306113b5565b60f81b818381518110610c0457610c04611478565b60200101906001600160f81b031916908160001a905350610c26600a86611450565b9450610bc6565b610662828260405180602001604052806000815250610d54565b60006001600160a01b0384163b15610d4957604051630a85bd0160e11b81526001600160a01b0385169063150b7a0290610c8b90339089908890889060040161148e565b602060405180830381600087803b158015610ca557600080fd5b505af1925050508015610cd5575060408051601f3d908101601f19168201909252610cd2918101906114cb565b60015b610d2f573d808015610d03576040519150601f19603f3d011682016040523d82523d6000602084013e610d08565b606091505b508051610d275760405162461bcd60e51b8152600401610412906113cd565b805181602001fd5b6001600160e01b031916630a85bd0160e11b14905061087a565b506001949350505050565b610d5e8383610d87565b610d6b6000848484610c47565b6104b35760405162461bcd60e51b8152600401610412906113cd565b6001600160a01b038216610ddd5760405162461bcd60e51b815260206004820181905260248201527f4552433732313a206d696e7420746f20746865207a65726f20616464726573736044820152606401610412565b6000818152600260205260409020546001600160a01b031615610e425760405162461bcd60e51b815260206004820152601c60248201527f4552433732313a20746f6b656e20616c7265616479206d696e746564000000006044820152606401610412565b6001600160a01b0382166000908152600360205260408120805460019290610e6b9084906113b5565b909155505060008181526002602052604080822080546001600160a01b0319166001600160a01b03861690811790915590518392907fddf252ad1be2c89b69c2b068fc378daa952ba7f163c4a11628f55a4df523b3ef908290a45050565b828054610ed5906112d0565b90600052602060002090601f016020900481019282610ef75760008555610f3d565b82601f10610f1057805160ff1916838001178555610f3d565b82800160010185558215610f3d579182015b82811115610f3d578251825591602001919060010190610f22565b50610f49929150610f4d565b5090565b5b80821115610f495760008155600101610f4e565b6001600160e01b03198116811461079257600080fd5b600060208284031215610f8a57600080fd5b81356106fe81610f62565b60005b83811015610fb0578181015183820152602001610f98565b838111156106985750506000910152565b60008151808452610fd9816020860160208601610f95565b601f01601f19169290920160200192915050565b6020815260006106fe6020830184610fc1565b60006020828403121561101257600080fd5b5035919050565b80356001600160a01b038116811461103057600080fd5b919050565b6000806040838503121561104857600080fd5b61105183611019565b946020939093013593505050565b60008060006060848603121561107457600080fd5b61107d84611019565b925061108b60208501611019565b9150604084013590509250925092565b634e487b7160e01b600052604160045260246000fd5b600067ffffffffffffffff808411156110cc576110cc61109b565b604051601f8501601f19908116603f011681019082821181831017156110f4576110f461109b565b8160405280935085815286868601111561110d57600080fd5b858560208301376000602087830101525050509392505050565b600082601f83011261113857600080fd5b6106fe838335602085016110b1565b60006020828403121561115957600080fd5b813567ffffffffffffffff81111561117057600080fd5b61087a84828501611127565b60006020828403121561118e57600080fd5b6106fe82611019565b600080604083850312156111aa57600080fd5b6111b383611019565b9150602083013580151581146111c857600080fd5b809150509250929050565b600080600080608085870312156111e957600080fd5b6111f285611019565b935061120060208601611019565b925060408501359150606085013567ffffffffffffffff81111561122357600080fd5b8501601f8101871361123457600080fd5b611243878235602084016110b1565b91505092959194509250565b6000806040838503121561126257600080fd5b61126b83611019565b9150602083013567ffffffffffffffff81111561128757600080fd5b61129385828601611127565b9150509250929050565b600080604083850312156112b057600080fd5b6112b983611019565b91506112c760208401611019565b90509250929050565b600181811c908216806112e457607f821691505b6020821081141561130557634e487b7160e01b600052602260045260246000fd5b50919050565b6020808252602e908201527f4552433732313a2063616c6c6572206973206e6f7420746f6b656e206f776e6560408201526d1c881b9bdc88185c1c1c9bdd995960921b606082015260800190565b6000835161136b818460208801610f95565b83519083019061137f818360208801610f95565b01949350505050565b634e487b7160e01b600052601160045260246000fd5b6000828210156113b0576113b0611388565b500390565b600082198211156113c8576113c8611388565b500190565b60208082526032908201527f4552433732313a207472616e7366657220746f206e6f6e20455243373231526560408201527131b2b4bb32b91034b6b83632b6b2b73a32b960711b606082015260800190565b600060001982141561143357611433611388565b5060010190565b634e487b7160e01b600052601260045260246000fd5b60008261145f5761145f61143a565b500490565b6000826114735761147361143a565b500690565b634e487b7160e01b600052603260045260246000fd5b6001600160a01b03858116825284166020820152604081018390526080606082018190526000906114c190830184610fc1565b9695505050505050565b6000602082840312156114dd57600080fd5b81516106fe81610f6256fea2646970667358221220b2e5b8196111a5d142b6abc0a8ba27037043d81b15f4b907be3f395172e7497864736f6c63430008090033",
  "linkReferences": {},
  "deployedLinkReferences": {}
}